:020000041100E9
:10A00000680300181DA1001125A1001131AA00113B
:10A01000EFAA001199A3001127AD00110000000064
:10A020000000000000000000000000002FA100114F
:10A0300031A100110000000033A100117DAC00111E
:10A0400037A1001137A1001137A1001137A100116C
:10A050009DA3001137A1001137A1001137A10011F4
:10A0600037A1001135AC001137A10011EFAC001180
:10A07000ADA60011E5A6001137A1001137A100110E
:10A0800000F002F800F03AF80AA090E8000C8244D0
:10A090008344AAF10107DA4501D100F02FF8AFF2AD
:10A0A000090EBAE80F0013F0010F18BFFB1A43F0B6
:10A0B00001031847F420000014210000103A24BFC7
:10A0C00078C878C1FAD8520724BF30C830C144BF1D
:10A0D00004680C607047000000230024002500265F
:10A0E000103A28BF78C1FBD8520728BF30C148BFFB
:10A0F0000B6070471FB51FBD10B510BD00F061F8B3
:10A100001146FFF7F7FF01F059F800F07FF803B4AC
:10A11000FFF7F2FF03BC00F087F800000948804712
:10A1200009480047FEE7FEE7FEE7FEE7FEE7FEE739
:10A13000FEE7FEE7FEE7FEE704480549034A054B54
:10A140007047000091AC001181A000116801001857
:10A15000680300186801001810B5203AC0F00B80A1
:10A16000B1E81850203AA0E81850B1E81850A0E81B
:10A170001850BFF4F5AF5FEA027C24BFB1E8185075
:10A18000A0E8185044BF18C918C0BDE810405FEAE5
:10A19000827C24BF51F8043B40F8043B08BF704761
:10A1A000D20728BF31F8023B48BF11F8012B28BF66
:10A1B00020F8023B48BF00F8012B704770477047FA
:10A1C0007047754600F02CF8AE46050069465346C8
:10A1D00020F00700854618B020B5FFF7ADFFBDE8B9
:10A1E00020404FF000064FF000074FF000084FF0FE
:10A1F000000B21F00701AC46ACE8C009ACE8C0098F
:10A20000ACE8C009ACE8C0098D46704710B50446FB
:10A21000AFF300802046BDE81040FFF778BF000094
:10A22000004870470801001801491820ABBEFEE73E
:10A2300026000200704700004FF040204FF44071AC
:10A240004160202181610021C16182150265816028
:10A25000C160416281620A22C2620167C166816691
:10A2600041660166C16581650164C167094A516043
:10A27000012191614FF0502111F8602F22F001026D
:10A280000A70416841F440714160016841F0010188
:10A2900001607047008001480448017941F01001D5
:10A2A0000171017821F010010170704700800248AF
:10A2B0000448017921F010010171017841F0100189
:10A2C0000170704700800248154808B513490268BC
:10A2D000C2F3404262B1006841F28832C0F38900A3
:10A2E000ADF80000504340F2FF32B0FBF2F00880BE
:10A2F0000A4A0C3A9189B1F5FA7F0CD9508932F8A3
:10A300001030994203D91070FFF7D2FF03E0042800
:10A3100001D2401C5081012008BD0000AC00001893
:10A320005C4000400E484CF6162141620D49016226
:10A3300072B698224FF0502101F8AC2F0A4A826180
:10A34000A8220A7062B6094981600021016041605B
:10A35000016141610648816004210162704700008B
:10A36000004003400100550C0101010011110301DF
:10A370000080014830B51B0643EA014141EA022151
:10A38000DDE90345034A0143116044EA05205060BA
:10A3900030BD00000040034000F036BD10B50B4C4E
:10A3A000B4F84400C00407D5B4F86800C00403D56D
:10A3B00000F0B4F9A014A0814FF0502090F8901153
:10A3C00041F0010180F8901110BD000000C0004074
:10A3D00010B5224C4FF40060208621480088A084EC
:10A3E0000520208540F23C70A0851E48241D006891
:10A3F00001F062FE20821C48006801F05DFEA08230
:10A400001A48006801F058FE20830020A0837E21B6
:10A41000A4F85410A4F85C00A4F85800A4F8500064
:10A420004AF23331A187A4F84C00A4F84400A014E8
:10A43000A4F840004FF42850A4F87C004BF62530D7
:10A44000A4F868000220A4F87000208840F04000C2
:10A450002080208840F48040208010BD00C0004053
:10A460002C000018300000183400001838000018C4
:10A4700030B50446552010E014F8013B082280EA6C
:10A48000030515F0010F4FEA500001D080F08C0059
:10A490005B08521E12F0FF02F1D1491EC9B2EBD285
:10A4A00030BD000030B51B481B49C08809884843AF
:10A4B0006421B0FBF1F11948818201838183B0F8F6
:10A4C0008010174A174BC1F3C201927B01F120049F
:10A4D000D5182C5DA0F85C40114448F2800433F894
:10A4E00011100C430481C1F30221114433F81110FF
:10A4F00001810121A0F854100B498A8942F04002E1
:10A500008A8181148181A0F8441044F24201818043
:10A5100030BD0000400000182C00001800C00040B2
:10A52000C8000018D80000180000014009480021A8
:10A53000A0F8541048F28001018107498A8922F06D
:10A5400040028A8140F2055181800021A0F8441028
:10A550007047000000C00040000001402DE9F041BC
:10A560003D4880893D4CA179012903D0A0F51061B7
:10A57000023929D1E179002601270225384A072925
:10A5800022D2DFE801F0043436393B445A00010A94
:10A59000E0816170C0B2A070072922D006DC0329D7
:10A5A00009D004290DD005291FD10FE00F291BD098
:10A5B00055291AD118E0162000F05AFB0520E07149
:10A5C00013E00621E171A072BDE8F08125490A7807
:10A5D000254900F095FD012801D0E571F4E7E77108
:10A5E000F2E70420E071EFE7E671A571ECE7608225
:10A5F000FAE760820320F5E7A082F5E7B0F5004FA7
:10A6000003D3C0F30E0000F50040E082ECE7E078F1
:10A610000128D9D1207A162807D232F8100000F08C
:10A6200027FB207A401C2072CEE7E07A00F020FB66
:10A630002672E670E671A771C6E7617AA77A4B1CAD
:10A64000DBB2B94203D222F811006372BCE7207377
:10A650006672A672C8E70000006002480000001899
:10A660007400001897C100118CC1001100EB80002C
:10A670004FF6FF714FF0E02201EAC001906980B20D
:10A68000884208D3411A89B293698B4202D99369EF
:10A690008342F9D370475369091A591A89B29369E9
:10A6A0008342FCD390698842FCD8704710B54FF0C4
:10A6B000502494F82800800707D52079800704D516
:10A6C00000F0DCFE022084F82C0094F82800C0077B
:10A6D00007D02079C00704D000F048FC012084F89E
:10A6E0002C0010BD10B54FF0502494F8280000073E
:10A6F00007D52079000704D500F0C0FE082084F8B3
:10A700002C0094F82800400707D52079400704D58D
:10A7100000F02CFC042084F82C0010BD2DE9F04141
:10A720003248808801F0C3F90022314B01F0D2F9A0
:10A7300002460B4600202F4901F034F800222E4B30
:10A7400000F088FF01F086F9DFF8B080B8F86410F7
:10A750002B4F2C4D090ABA7BCC0856192034345D96
:10A76000A8F85C4001F00701114435F81110A8F871
:10A77000081025498D8C797BFF2901D2491C7973FA
:10A78000C9B2012923D0FA88AA1A96B2B0FBF6F012
:10A7900084B2BC8002291DD042F6AB222146184863
:10A7A00000F094F9B8807889A04210D8387B3C2119
:10A7B00070431E30B0FBF1F080B2062800D20620B4
:10A7C000A8F828004FF48042A8F804203881FD80C2
:10A7D000BDE8F0814FF6FF722146094800F076F996
:10A7E0000A49B88003200870DDE700004000001827
:10A7F00000001840A3E161410000E03F00C00040BC
:10A80000C8000018D8000018000001403C000018E3
:10A810000449088A00B1887C034A1073888A5081F1
:10A820007047000040000018C800001804480021CC
:10A8300006220160C180028181804173704700005F
:10A84000C80000181A4810B5007803282FD1194CF9
:10A850001949201D22888988511A0BB2B4F90A209F
:10A86000616803FB0211B4F90C20D203914204DBAE
:10A87000B0F90A20D203914200DD11460160B0F91F
:10A8800004205A4302F3180201EB8211B0F90C20A4
:10A89000C913914203DBB0F90E20914200DD11464D
:10A8A000064881820183818340228280A18210BD7B
:10A8B0003C000018B0000018C800001800C000409C
:10A8C00070B5094D287808B1012070BD0748807B1C
:10A8D00000F084FB064801240472FFF799FF00F0A2
:10A8E00051F82C70002070BD3C000018400000188A
:10A8F00000400050C10F044AC9000028917300DADB
:10A900004042024908807047C8000018B000001893
:10A910001CB50D4C2078012801D002201CBDFFF78A
:10A92000C1FD032000900346024601460190FFF757
:10A9300021FD0648002141608182FFF777FF022058
:10A94000207000201CBD00003C000018B000001862
:10A950001CB50B4C2078022801D203201CBD00201E
:10A9600000900346024601460190FFF703FDFFF702
:10A97000DDFDFFF7D7FC0120207000201CBD00008A
:10A980003C0000182DE9F041144C154E00202080A9
:10A99000F08A2081308B6081F06901F071FB1149F0
:10A9A00064270D88684390FBF7F0A081306A01F0BE
:10A9B00067FB684390FBF7F0E081706A01F060FB91
:10A9C000684390FBF7F02082B06A01F059FB6843BE
:10A9D00090FBF7F06082BDE8F0810000B000001845
:10A9E000400000182C000018044910B50020087021
:10A9F00000F0AAFDBDE81040FFF762BF3C00001860
:10AA00000A48002202814FF6FF71018440F60603D6
:10AA1000838181840282018582828185C2140283BE
:10AA20000186818348F65E418180704700000140C5
:10AA300000F0EAB94FF05021002001F8190BC8725C
:10AA4000C873C8752422CA760122CA7781F82320E8
:10AA500081F84301144A4FF0FF135362134B5361C3
:10AA60001062906281F8BB00D065114B4FF07042CC
:10AA70001A6010221B1D1A601A1D1060121D106032
:10AA80004FF0E02343F61822C3F800218022CA7059
:10AA9000FF2281F86B2181F86F2181F82B0181F869
:10AAA0002F0104490860704700600050C7FF3F3F16
:10AAB00000E400E020ED00E0FFF7C4BE10B5FFF7B2
:10AAC00047FF0149088310BD0000001830B5046835
:10AAD000C2F58033250CA4B25D435C4305EB1443FF
:10AAE00001FB0231016001F50041080C30BD7047E7
:10AAF00010B500F0070201239340114C020904EB4A
:10AB0000C20272B679B1012910D0022911D00C4AC3
:10AB10000009121D02EBC000032901780DD0194372
:10AB2000017062B610BD1078984304E010781843A5
:10AB300001E0107858401070F3E79943F0E7000007
:10AB40000080024810B500F0070201239340114C29
:10AB5000020904EBC20272B679B1012910D00229B0
:10AB600011D00C4A0009121D02EBC0000329017824
:10AB70000DD01943017062B610BD1078984304E0FF
:10AB80001078184301E0107858401070F3E79943AB
:10AB9000F0E700000080024811480C2303710422F2
:10ABA00080F840201C2101770176002180F83010C8
:10ABB00080F8341000F81D2B00F8113C0B4680F88B
:10ABC00027101421C171C170C276C377082100F823
:10ABD000151C822100F8091C0521C173C172704740
:10ABE000008002484FF05020002100F8B41F0122DD
:10ABF00000F83C2C802200F8382C00F8641C2E222F
:10AC000002710172812202730174017780F8981039
:10AC100080F8CC1070470000054801218180132185
:10AC2000018200210180818841F4004181807047C8
:10AC30000040024810B54FF0502494F8340040070B
:10AC400007D5207B400704D5FFF788FC042084F853
:10AC50007C0110BD05485F21818013210182002104
:10AC60000180818841F40041818070470060024882
:10AC700001490881888970470060024810B5FFF7D4
:10AC80001BFF02480168491C016010BD70000018DC
:10AC90000949084808600948016A21F01101016268
:10ACA0000748017821F00401017000210176C021DC
:10ACB0000177704700A0001108ED00E0006000502F
:10ACC0000050004810B5FFF78DFFFFF7B5FAFFF70A
:10ACD00029FBFFF77DFBFFF793FEFFF75DFFFFF713
:10ACE0009BFFFFF7B7FFBDE81040FFF7A3BE10B50D
:10ACF0004FF0502494F82800800607D5207980066C
:10AD000004D500F0BBFB202084F82C0094F8280028
:10AD1000C00607D52079C00604D500F027F9102019
:10AD200084F82C0010BD00F06FB800002DE9F0474A
:10AD3000DFF884800026D8F8181021F00101C8F847
:10AD400018101E4DD5F88870D5F8880020F0FF0047
:10AD5000C5F888000524DFF868904FF4A04A08E0A1
:10AD6000C0F814A06420FFF781FC641E2404240CA6
:10AD70001CD0D9F81810484611F4A04FF0D1ACB14E
:10AD8000D8F8181041F00101C8F818100A2440F250
:10AD9000633806E06420FFF769FC641E2404240C79
:10ADA00004D0A96E4145F5D304B10126C5F88870D9
:10ADB0003046BDE8F08700000080014800C001482F
:10ADC0000060005003498007000E486302490120DB
:10ADD00008707047006000506C000018084900209F
:10ADE0004A68B2F52F7F02D20A78012A06D1054AB5
:10ADF0003F20506300204860087001207047000029
:10AE00006C0000180060005010B500210220FFF710
:10AE100099FE01210320FFF795FE0121BDE81040B6
:10AE20001320FFF78FBE00000446FFF7D7FF094845
:10AE300010F8C01F64F307010170BFF34F8F06487D
:10AE40000168064A01F4E06111430160BFF34F8FCE
:10AE500000BFFDE7004000500CED00E00400FA05E3
:10AE600070B516460D4604462C220F490F48FFF7D1
:10AE700073F90F480F490278204600F041F9014666
:10AE80000A4801290DD020F8146000EB44004580E9
:10AE90002C2206490448FFF75FF9BDE87040FFF730
:10AEA000A3BD20F81450F3E7400000187400001808
:10AEB00097C100118CC1001170B515460C460646AD
:10AEC000092904D00A2C05D00B2C06D009E000215A
:10AED000022004E00021032001E000211320FFF7FD
:10AEE00031FE092C05D00A2C26D00B2C26D00020B0
:10AEF00070BD45B1012D09D0022D0BD0304600F0B8
:10AF0000CDFA012070BD00F017FBFAE7304600F0E3
:10AF1000CBFAF6E70C4810F8C01FFF210170BFF311
:10AF20004F8F0A4801680A4A01F4E0611143016049
:10AF3000BFF34F8F00BFFDE7002200E0012229464A
:10AF4000304600F0EAF8DCE7004000500CED00E08D
:10AF50000400FA0510B50446008808B94FF4E05023
:10AF600000F09CFA0020208010BD00000548017B05
:10AF700021F0040101730448818821F4004181809B
:10AF800070470000008002480060024810B5124C73
:10AF90000020207041F28830A0810120608141F2C0
:10AFA000941060804FF4FA60A08040F2DC50E080A2
:10AFB0004FF4FA702081FFF76FF9FFF73DF9FFF7C3
:10AFC000B5FE03E0FFF780F9FFF708FF20780028BF
:10AFD000F8D0C0B210BD0000A0000018F0B547497D
:10AFE0000022B0238324B3258C26BC274FF08F0C7E
:10AFF00021F8022BF0B340F60D3021F8020B41F29C
:10B00000346021F8040B41F6312021F8020C42F2A1
:10B01000135021F8080B42F61C1021F8060C43F2DD
:10B02000074021F8040C21F8022C0A8040F6075052
:10B03000488041F21C30888041F61310C88042F2EB
:10B040003160088142F63440488143F20D20888106
:10B05000CA810A744F748D74CB7481F814C04E7514
:10B060008C75CA750A764D7681F81AC0CC760F7742
:10B070004B7700E002E08E77CA77F0BD40F63130C2
:10B0800021F8020B41F2076021F8040B41F634204D
:10B0900021F8020C42F21C5021F8080B42F60D1068
:10B0A00021F8060C43F2134021F8040C21F8022C7D
:10B0B0000A8040F61350488041F20D30888041F6F6
:10B0C0001C10C88042F23460088142F60740488173
:10B0D00043F231208881CA810A744B748C74CD7418
:10B0E0000E754F7581F816C0CA750A764C768E7645
:10B0F00081F81BC00B774D778F77BDE7D80000181C
:10B1000010B5002305E0CC5C844201D1012010BDC4
:10B110005B1C9342F7DB002010BD10B50B460446C4
:10B1200011461846FFF70EFD2046BDE8104000F01E
:10B13000BBB9000010B5102821D007DC68B1012888
:10B140000ED0022815D003280FD115E0112819D0F0
:10B1500012281AD0132808D11AE02C220E4901E037
:10B160000E492C220E48FEF7F7FFBDE81040FFF70E
:10B170003BBC2C220B49F5E72C220B49F2E72C2291
:10B180000A49EFE72C220A49ECE72C220949E9E7B2
:10B190002C220949E6E7000000E0001180E00011E0
:10B1A0004000001800E1001180E1001100D0011101
:10B1B00080D0011100D1011180D10111FFF782FD72
:10B1C000744890F8C40000F075F901210220FFF7DF
:10B1D0008FFC01210320FFF78BFC00211320FFF7D8
:10B1E00087FC4FF4817000F05FF92C226A496B48AC
:10B1F000FEF7B2FF4FF47A70FFF77CFBFFF760FBBE
:10B20000674D0124674F2883AC710026FFF7E6FDE8
:10B21000A8790228FAD10320A871AA786978E88968
:10B22000FFF74AFEF8B96878072879D007DC0728C5
:10B2300023D2DFE800F022112430425A68000F28A0
:10B2400075D004DC08286AD00C2816D19BE01128A0
:10B2500075D0552811D18BE0A878102804D0022889
:10B2600008D0FFF7E1FD08E0E889801C80B200F01B
:10B270001BF902E0E88900F011F9AC71C6E7E88932
:10B2800028822878012802D1FFF718FC2E70A878B0
:10B29000FFF750FF6AE02878012802D1FFF70EFC83
:10B2A0002E702C223C493D48FEF756FF3B482C218E
:10B2B000FFF7DEF8E872EC70DFE7E889288228788B
:10B2C000012802D1FFF7FAFB2E7034482C21FFF73A
:10B2D000CFF8E872297B81421DD12C222F492E48BC
:10B2E000FEF73AFFFFF780FB40E0E88928822878E4
:10B2F000012802D1FFF7E2FB2E70AA8A698AA8789A
:10B30000FFF7AEFD32E0E8892882A87800F054F813
:10B310002871687950B32E71AFE701E007E015E0BE
:10B32000E8892882B5F91600FFF7E4FA1EE0B5F9BE
:10B330001600002804DAB888404200B202E01AE0A1
:10B34000B7F9040080B2FFF793FC96E7E8892882FA
:10B35000A8782978084303D1FFF7DAFA28832C70FC
:10B36000A878012802D1FFF7A9FB2E702C7184E781
:10B3700000F01AF8E6E728790128288A7FF47BAFE5
:10B3800000F092F8C7E706481830FFF7E3FDAC710C
:10B3900073E70000004000504000001874000018DF
:10B3A00000000018C80000180248B0F88000C0F380
:10B3B000C200704700C0004070B5284E054600240A
:10B3C0002C2227493046FEF7C7FE35B1012D06D0A5
:10B3D000022D07D0032D09D106E0224C06E0214CB6
:10B3E000803403E0204C01E01F4C80341F490020D2
:10B3F0000968884710F0FF0F2DD11D4A0021204613
:10B400001268904710F0FF0F25D12C213046FFF72E
:10B410002FF805460120FFF7D5FC1649204609689C
:10B420008847FFF7DBFC0020315C2154401CC0B290
:10B430002C28F9D30120FFF7C5FC0F49002009682B
:10B440008847FFF7CBFC2C212046FFF711F88542F7
:10B4500001D1012070BD002070BD000074000018F3
:10B460004000001800D0011100D1011198C1001155
:10B47000A4C100119CC10011A0C100110548017BAD
:10B4800041F0040101730448818841F40041818046
:10B4900070470000008002480060024801490881AE
:10B4A000888970470060024800F5805080B2FFF73D
:10B4B000F5BF00001F4A4FF05021012814D0022888
:10B4C0001BD0032827D004280DD112F8C40F042064
:10B4D000107011F8B80F40F00C0001F890090878CE
:10B4E00040F00C000870704712F8C40F0120107073
:10B4F00011F8B80F40F0030016E012F8C40F022054
:10B50000107011F8B80F40F0300001F89009087879
:10B5100040F03000E6E712F8C40F0320107011F875
:10B52000B80F20F00300801C01F89009087840F063
:10B530000300D7E70040005010B5FFF727FDBDE836
:10B540001040FFF7B7BF00002DE9F041324D3349FD
:10B55000022228680860324904460A8001463148C0
:10B5600000F0CCFC304900260860304806802046B8
:10B5700000F098FC02460B4600202D4900F012F91D
:10B580002C4F00223B4600F00DF98846044600F09F
:10B5900061FA29493B46002208802046414600F0D6
:10B5A00097FB00F057FA84B22448048024480660D0
:10B5B0002448066024480660288A00B1A87C2349F4
:10B5C000234E0873A88A4881E88A3081288B7081CD
:10B5D000E86900F055FD6043642790FBF7F0B08107
:10B5E000286A00F04DFD604390FBF7F0F081686A37
:10B5F00000F046FD604390FBF7F03082A86A00F04F
:10B600003FFD604390FBF7F07082A87BFFF7E6FCFC
:10B61000BDE8F041FEF7DCBE400000181C00001839
:10B620002000001800247449240000182800001885
:10B63000D01283410000F03F2A0000182C000018AF
:10B64000300000183400001838000018C800001836
:10B65000B000001810B591EA030F48BF83F0004313
:10B6600000F13E83841A71EB030C05D2121943EBEF
:10B670000C03001B61EB0C01DFF824E14FEA1154CD
:10B68000A4EB135C1EEA430F18BF9EEA445F73D01D
:10B6900023EA0E03DCF1200E21EA045143F4801367
:10B6A00032D322FA0CFE10EB0E0023FA0CFE41EB13
:10B6B0000E01CCF1200E03FA0EFE10EB0E0051F13C
:10B6C0000001B1F5801FCCF1200E32D201EB045104
:10B6D00012FA0EF2BDE8104058BF7047401C38BF48
:10B6E0005FEA420218BF7047002814BF20F0010033
:10B6F00041F100014FEA410313F5001F38BF7047C5
:10B70000A1F1C04100F0DEBA012A43EB0302ACF123
:10B71000200CDCF11F0E32BF4FF0000E23FA0CF3A9
:10B7200010EB030041EB0451B4EB115FD0D0A1EB5F
:10B73000045101F5801149085FEA300001EB045122
:10B740000ED350F1000038BF12FA0EFE08D1BDE84A
:10B750001040C9E7401C38BF5FEA4202CAD1C3E7C4
:10B76000BDE810404FEA410313F5001F38BF704792
:10B77000A1F1C04100F0A6BA9EEA445F08D011EAE8
:10B780005E0FBDE8104004BF01F00041002070478B
:10B79000BDE8104070B500F047FA00BF64FBBE3E44
:10B7A0000000E0FF2DE9C04130B4DFF8A0C23CEA60
:10B7B000111418BF3CEA131400F0EC8081EA030571
:10B7C0001CEA111444EAD57418BF1CEA131500F0E2
:10B7D000C780A4EB05044FF0004545EAC12145EAC6
:10B7E000C32341EA505143EA525304F17F74994212
:10B7F00004F500344FEAC0204FEAC22208BF90424D
:10B8000000F09C804FEA13650FF24016765D4FEA18
:10B81000134506FB05F7C7F1807706FB07F74FEAEC
:10B82000D737A7FB03687642C8F58038A7FB06CE5A
:10B8300038BFA8F1010807FB08E64FF0000EA6FB91
:10B84000028CE6FB03CEDCF1000CCEF1004E38BFDB
:10B85000AEF1010EA6FB0C584FF000074FF00005AB
:10B86000E6FB0E87A1FB08C6A0FB07CE16EB0E0673
:10B8700045F10005E1FB076515F1E04E7EBFA4F53B
:10B8800080345FEA46066D4116F1800745F10005F8
:10B890004FEA17274FEA066647EA0567A6F1DE4634
:10B8A000B6F1805F4FEA15251FD9384624F0010C08
:10B8B00005EBC471BCF1FE6F01EB0C1102D8F0BCBA
:10B8C000BDE8008124425CBF01F5801E9EEAC47F72
:10B8D00002D4F0BCBDE80081244238D4F0BCA1F110
:10B8E000C041BDE8004100F0EDB94FEAD22242EA82
:10B8F00043524FEAD323A7FB02864FEAD02040EA07
:10B90000415007FB03661EEA0E0F4FEAD12105FBEB
:10B91000026658BFA6EB0056B6EB00564FEA520E31
:10B920004EEAC37E18EB0E0E56EB530EBDD518EB48
:10B9300002085E417F1C55F10005B6E74FF4801503
:10B940004FF000074FF000064FF00008ADE7F0BCE5
:10B950004FF0000001F1C04101F00041BDE800815D
:10B9600011EA0C1F0CEA131500D00CE013EA0C1FAF
:10B9700000F025804FF00000F0BC81EA030101F0E7
:10B980000041BDE80081F0BCBDE8004181EA03014F
:10B9900000F098B9F0BCBDE8004170B500F044F982
:10B9A000097EFC3E00F007B881EA03014FF0000079
:10B9B00001F00041704781EA030100F083B9F0BC57
:10B9C000BDE800414FF0000021497047FFFDFBF941
:10B9D000F7F5F4F2F0EEEDEBE9E8E6E4E3E1E0DEC2
:10B9E000DDDBDAD8D7D5D4D3D1D0CFCDCCCBCAC834
:10B9F000C7C6C5C4C2C1C0BFBEBDBCBBBAB9B8B75B
:10BA0000B6B5B4B3B2B1B0AFAEADACABAAA9A8A84D
:10BA1000A7A6A5A4A3A3A2A1A09F9F9E9D9C9C9B1B
:10BA20009A999998979796959594939392919190C6
:10BA30008F8F8E8E8D8C8C8B8B8A89898888878757
:10BA40008685858484838382828181800000FF07CC
:10BA50000000F87F4FEA1153A3F58063D3F11E0372
:10BA6000A8BFD3F1200C08DB4FF0004242EAC1220C
:10BA700052EA505232FA03F0704709420BD4102BAD
:10BA8000C4BF0020704703F5787CBCF1FF3F05D0B0
:10BA90004FF0FF3070474FF00000704770B500F076
:10BAA000C3F800BF4992248000207047F0E7B0FA45
:10BAB00080F310FA03F10AD0C3F11D0303F580638C
:10BAC0004FEA41504FEA035202EBD12170474FF049
:10BAD00000007047DFF848C170B51CEA111E1EBF98
:10BAE0001CEA13159EEA0C0F95EA0C0F00F06F800C
:10BAF00081EA030423EA4C134EEAD47E21EA4C1176
:10BB000041F4801143F48013AE44A1FB024CA0FB2E
:10BB10000365AEF17F7E361955EB0C05A1FB034C96
:10BB20004CF10003A0FB021C16EB0C06654153F11F
:10BB30000003094218BF46F0010613F4007F0BD141
:10BB40004FEA03314FEA0530340341EA155140EA28
:10BB500016506FF003020AE04FEAC3214FEAC520F6
:10BB6000F40241EA555140EA56506FF0020202EBEE
:10BB70002E4201EB025585EACE710AD05FEA440CF1
:10BB800018BF24F0004450F1000041F1000120EA08
:10BB9000D47040F2FE7C624500D270BDA84214BF52
:10BBA0004FF080444FF04044002E08BF0024BEF107
:10BBB000806FA8BFA1F1C041BDE8704080F28280D3
:10BBC0004FF0000001F1C04101F0004170479EEAD2
:10BBD0000C0F0CEA131518BF95EA0C0F06D04FF0A6
:10BBE000000081EA030E0EF0004170BD00F01CF869
:10BBF0008900013E00F007B800F009B84FEA430C95
:10BC00005FEA5C5C08D081EA030100F05BB84FEAB0
:10BC1000410C5FEA5C5CF6D14FF0000001497047CF
:10BC20000000FF070000F87F0EF1020E2EF0030E59
:10BC30005EF8046B364205D4012A43EB030515F583
:10BC4000001F12D8012841EB010C1CF5001F0CD875
:10BC50000ED14FEAD17C15F5001F0CEB4C0C0CF10A
:10BC6000020C08BF4CEBD37C04E04FF0080C01E061
:10BC70004FEAD37C0CEB4C0526FA05F606F00706D6
:10BC8000B6F1040C06D20EEB860CBDE870404CF009
:10BC9000010C6047DFE80CF0090B02024FF0004195
:10BCA0004FF00000A1F5002170BD19461046012893
:10BCB00051EB010418BFD4F5001484BF002001F03B
:10BCC000004170BD0808A0F500114FEA310170472E
:10BCD00010B591EA030F48BF83F000433FF5C2ACB3
:10BCE000841A71EB030C07D212198CF0004C43EB51
:10BCF0000C03001B61EB0C01DFF8A4E14FEA1154C7
:10BD0000A4EB135C1EEA430F18BF9EEA445F00F0E9
:10BD1000B08023EA6E03524221EA0451C3EB6E0362
:10BD200038BF5B1EDCF1200E25D322FA0CFE10EB8F
:10BD30000E0043FA0CFE41EB0E01CCF1200E03FA8B
:10BD40000EFE10EB0E0051F10001CCF1200E29D4B3
:10BD500012FA0EF201EB0451BDE8104058BF7047D3
:10BD6000401C1CBFB2F1004F704700280CBF491C9B
:10BD700020F00100704712EB020E43EB030218BFE4
:10BD80004FF0010E4EEA4202ACF1200CDCF11E0E27
:10BD900054D943FA0CFE10EB0E0051F1FF31CCF1F7
:10BDA0001E0ED5D50EF1010E12FA0EFE404141EBEA
:10BDB000010101EB445C5FEA5C5C10D910EBDE70C2
:10BDC00001EB045138BFBEF1004FBDE8104018BF71
:10BDD000704700280CBF491C20F00100704730D28A
:10BDE0004FEAD42C11F5001124F400641BD0B1FAF1
:10BDF00081F20B3AA41AA41ED2F12003914030FA2A
:10BE000003F31943904001EBCC71002C01EB04517A
:10BE1000BDE81040A8BF704701F1C0414FF00000DD
:10BE200001F000417047B0FA80F310FA03F100D13D
:10BE300010BDE41A173C4805C90AE4E701EB0451B8
:10BE400010BD491001EB0451BDE810404FEA30002D
:10BE500002E04FF0000170474A0008BF0042F8D0EE
:10BE6000B2F5001F28BF704701F000414FF00000FD
:10BE700070479EEA445F07D011EA5E0FBDE81040AC
:10BE800004BF002100207047BDE8104070B5FFF7E7
:10BE9000CBFE00BF40DFF63E83F000411046704706
:10BEA0000000E0FF43004FEAD30C4FEA3C0C434054
:10BEB0001FBF40070CF1605113F0FE4F70471CF09C
:10BEC000006F03D100200CF0004170470CF00043DC
:10BED00043EA507010B540EACC0000F00CF900BF06
:10BEE000000000924FEA0001FFF7ECBE4FF0004166
:10BEF0004FF00000A1F50021704700004FF47F0CC7
:10BF00001CEAD0121EBF1CEAD11392EA0C0F93EA6E
:10BF10000C0F00F0858090EA010F48BF42F4807258
:10BF200040F4000C41F400002CF07F4120F07F40F1
:10BF300000B58142A2EB03020FF2081CACEB504E9D
:10BF4000C0F100009EF800E04FEA4E0E00FB0EFC30
:10BF500038BF49004FEA2C1C02F5FA020CFB0EF325
:10BF60004FEACE1E4FEA112C4FEAC1210EEB635E61
:10BF700042EB22420EFB0CFC4FEA1C5300FB031168
:10BF80004FEA112C4FEA01310EFB0CFC4FEADC4C5E
:10BF900000FB0C11C14228BF09184CEB03335DF8BC
:10BFA00004EB10EB410143EBC250B2F57C0F38BFFC
:10BFB000704729D512F0F00F1CBF00F1C04000F00F
:10BFC00000407047008182838485868788898B8CB6
:10BFD0008D8E8F919293959697999A9C9D9FA0A2F2
:10BFE000A3A5A7A8AAACAEB0B2B3B5B7B9BCBEC042
:10BFF000C2C5C7C9CCCED1D4D7D9DCDFE2E6E9ECE3
:10C00000F0F3F7FAFE0000004FEA400C0CF1807CE0
:10C01000BCF17E4F28BF7047B0F1C04000F0B1B80E
:10C0200090EA010F0CEAD11348BF42F480726245D6
:10C0300038BF634507D213F47F0F16D080EA0100A2
:10C0400000F00040704710B500F055F8097EFC3E46
:10C0500000F005B880EA010000F00040704780EA77
:10C06000010000F0004000F08CB812F47F0F04BF14
:10C070000248704780EA010000F083B80000C07FEA
:10C0800041000B0ED3F19E0208D950F400034FEA91
:10C09000032323FA02F048BF4042704710B500F076
:10C0A0002AF800BF49922480002070476FF00042B8
:10C0B00082EA200070470000C10DD1F19E0206DB2C
:10C0C0004FEA002343F0004323FA02F07047004296
:10C0D00007D54FEA4001B1F1FE4F02D24FF0000008
:10C0E000704710B500F007F849922480002070478F
:10C0F0006FEA200070470EF1020E2EF0030E5EF87C
:10C10000044B244204D44FEA4102B2F17F4F11D8CC
:10C110004FEA4003B3F17F4F0CD80ED14FEAD07CE9
:10C12000B2F17F4F0CEB4C0C0CF1020C08BF4CEB46
:10C13000D17C04E04FF0080C01E04FEAD17C0CEB1D
:10C140004C0324FA03F404F00704B4F1040C06D2FF
:10C150000EEB840CBDE810404CF0010C6047DFE8AA
:10C160000CF0070802024FF00040A0F5800010BD5F
:10C170000846420018BFD2F1807288BF00F000402C
:10C1800010BDFF2141EAD050C005704702030405ED
:10C19000060708090A0B0C0B1D390000E5380000E2
:10C1A000DD380000D5380000ACE1001100000018B7
:10C1B00074000000BCA0001120E2001174000018FF
:10C1C000F4020000D8A000110000000000000000F0
:10C1D000000000000000000000000000000000005F
:10C1E000000000000000000000000000000000004F
:10C1F000000000000000000000000000000000003F
:10C20000000000000000000000000000000000002E
:10E0000000409C4602000A000200020002000100DB
:10E0100000000000F40128001400000000000000CF
:10E0200000009642000000410000964200000000FF
:10E0300000000000000000000000000000000000E0
:10E0400000000000000000000000000000000000D0
:10E0500000000000000000000000000000000000C0
:10E0600000000000000000000000000000000000B0
:10E0700000000000000000000000000000000000A0
:10E080000000000000000000000000000000000090
:10E090000000000000000000000000000000000080
:10E0A0000000000000000000000000000000000070
:10E0B0000000000000000000000000000000000060
:10E0C0000000000000000000000000000000000050
:10E0D0000000000000000000000000000000000040
:10E0E0000000000000000000000000000000000030
:10E0F0000000000000000000000000000000000020
:10E10000000000000000000000000000000000000F
:10E1100000000000000000000000000000000000FF
:10E1200000000000000000000000000000000000EF
:10E1300000000000000000000000000000000000DF
:10E1400000000000000000000000000000000000CF
:10E1500000000000000000000000000000000000BF
:10E1600000000000000000000000000000000000AF
:10E17000000000000000000000000000000000009F
:10E18000000000000000000000000000000000008F
:10E19000000000000000000000000000000000007F
:10E1A000000000000000000000000000000000006F
:10E1B000000000000000000000000000000000005F
:10E1C000000000000000000000409C46020000002B
:10E1D000000048420000D007CF0700000000000008
:10E1E00000000000000000000000000000409C460D
:10E1F00002000A000200020002000100000000000C
:10E20000F401280014000000000000000000964205
:10E2100000000041000096420000000000000000E5
:020000041101E8
:10D000000000000000000000000000000000000020
:10D010000000000000000000000000000000000010
:10D020000000000000000000000000000000000000
:10D0300000000000000000000000000000000000F0
:10D0400000000000000000000000000000000000E0
:10D0500000000000000000000000000000000000D0
:10D0600000000000000000000000000000000000C0
:10D0700000000000000000000000000000000000B0
:10D0800000000000000000000000000000000000A0
:10D090000000000000000000000000000000000090
:10D0A0000000000000000000000000000000000080
:10D0B0000000000000000000000000000000000070
:10D0C0000000000000000000000000000000000060
:10D0D0000000000000000000000000000000000050
:10D0E0000000000000000000000000000000000040
:10D0F0000000000000000000000000000000000030
:10D10000000000000000000000000000000000001F
:10D11000000000000000000000000000000000000F
:10D1200000000000000000000000000000000000FF
:10D1300000000000000000000000000000000000EF
:10D1400000000000000000000000000000000000DF
:10D1500000000000000000000000000000000000CF
:10D1600000000000000000000000000000000000BF
:10D1700000000000000000000000000000000000AF
:10D18000000000000000000000000000000000009F
:10D19000000000000000000000000000000000008F
:0CD1A00000000000000000000000000083
:040000051100A081C5
:00000001FF
